:1000000000308A009E280000FF00030E8301A1003B
:100010000A08A0008A010408A2007708A300780853
:10002000A4007908A5007A08A600831383128C30F7
:100030008400801E1D288C1A2E2822088400230884
:10004000F7002408F8002508F9002608FA0020081F
:100050008A00210E8300FF0E7F0E09008A110A120A
:1000600031288C1E31281A08A70028148C128A11F6
:100070000A121D28EC34E737751031008316031778
:100080008C170C140000000083120C087F39031930
:1000900084280313AA0003170D080313AB000317EA
:1000A0000F080313AC002A080C1E542899002B08D3
:1000B00003178D0003132C0803178F0083168C176A
:1000C0000C140000000083120C0D0E0D7F39031973
:1000D00084280313AA0003170D080313AB000317AA
:1000E0000F080313AC002A080C1E742899002B0873
:1000F00003178D0003132C0803178F008D0A0319B3
:100100008F0A03133E28031703138A110A120A29C0
:100110002B3084008313000803199B280630F80055
:10012000F701F70B9128F80B90287B30F700F70BBD
:100130009728800B8E288A110A122729840183139D
:100140001F308305813083169900A63098009030C7
:1001500083129800281083161F149F141F159F11D7
:1001600007309C00FF308312A90083161F149F14D0
:100170001F159F111F1383121F139F1383169F13A5
:1001800083121F148316091283129412A9122908CC
:100190008316870083122916290883168700831285
:1001A000A9112908831687000130831294000030BA
:1001B000831694000108C739083881008312900122
:1001C0000030F800920000308316920007309C0047
:1001D000050885001030F700F70BEC2800001C081C
:1001E00083120D1383169D018C16C03083128B046D
:1001F000281C292928102708313C031D0A298316A9
:100200008610831286143A3003178D0000308F0059
:1002100003133E282708323C031D122983160611BA
:10022000831206152708413C031D1A2983168610E0
:10023000831286102708423C031D222983160611CB
:10024000831206110230AA009630AB008828AA0B50
:060250002429F8286300D8
:02400E007A3FF7
:00000001FF
;PIC16F877A
;CRC=DA48  CREATED="01-fev-13 02:16"
