:1000000000308A0018280000233084008313000881
:10001000031917280630F800F701F70B0D28F80B25
:100020000C287B30F700F70B1328800B0A280034CC
:10003000840183131F308305813083169900A63015
:10004000980090308312980083161F149F141F1578
:100050009F1107309C00FF308312A0000130A100E7
:10006000A20183161F149F141F159F1183121F10C6
:100070008316091283129412A01220088316870097
:10008000831220162008831687008312A0112008EF
:1000900083168700003083129400831694000108B1
:1000A000C73908388100831290010030F8009200AF
:1000B00000308316920007309C0005081030F700CE
:1000C000F70B602800001C0883120D1383169D0196
:1000D00083122208003C031C7828831686018312B1
:1000E000210886006430A30004200310A10DA20D96
:1000F0002208003C03189528FF3A031D8328210895
:10010000003C031895288316860183122108860077
:100110006430A30004200310220CFA00210CF90023
:0E012000A1027A08031C7A0FA202692863006C
:02400E003A3F37
:00000001FF
;PIC16F877A
