:1000000000308A00C5280000A208031D0C288316B2
:1000100086013F3083128600220B13288316860147
:100020000630831286002208023C031D1C2883161A
:1000300086015B30831286002208033C031D2528BD
:10004000831686014F30831286002208043C031D6C
:100050002E28831686016630831286002208053C0E
:10006000031D3728831686016D308312860022080F
:10007000063C031D4028831686017D3083128600CE
:100080002208073C031D4928831686010730831286
:1000900086002208083C031D5228831686017F3003
:1000A000831286002208093C031D5B288316860103
:1000B0006F30831286008A110A12152922308400BB
:1000C00083130008031971280630F800F701F70BB5
:1000D0006728F80B66287B30F700F70B6D28800B3C
:1000E00064280034831688013F3083128800323040
:1000F000A2005E2083168801063083128800323009
:10010000A2005E20831688015B30831288003230A3
:10011000A2005E20831688014F308312880032309F
:10012000A2005E2083168801663083128800323078
:10013000A2005E20831688016D3083128800323061
:10014000A2005E20831688017D3083128800323041
:10015000A2005E20831688010730831288003230A7
:10016000A2005E20831688017F308312880032301F
:10017000A2005E20831688016F308312880032301F
:10018000A2005E208A110A121629840183131F30EF
:10019000830583161F149F141F159F1107309C00A1
:1001A000FF308312A00083161F149F141F159F1188
:1001B00083121F108316091283129412A0122008B2
:1001C0008316870083122016200883168700831267
:1001D000A011200883168700003083129400831634
:1001E00094000108C739083881008312900100305B
:1001F000F800920000308316920007309C0005083A
:100200001030F700F70B022900001C0883120D13B1
:1002100083169D01880183128801A1012108093CF0
:10022000031C19292108A200042872280130A10703
:060230000E290D296300F8
:02400E007A3FF7
:00000001FF
;PIC16F877A
